{
  "_format": "hh-sol-artifact-1",
  "contractName": "Greeter",
  "sourceName": "contracts/Greeter.sol",
  "abi": [
    {
      "inputs": [
        {
          "internalType": "string",
          "name": "_greeting",
          "type": "string"
        }
      ],
      "stateMutability": "nonpayable",
      "type": "constructor"
    },
    {
      "anonymous": false,
      "inputs": [
        {
          "indexed": false,
          "internalType": "string",
          "name": "oldGreeting",
          "type": "string"
        },
        {
          "indexed": false,
          "internalType": "string",
          "name": "newGreeting",
          "type": "string"
        }
      ],
      "name": "GreetingUpdated",
      "type": "event"
    },
    {
      "inputs": [],
      "name": "greet",
      "outputs": [
        {
          "internalType": "string",
          "name": "",
          "type": "string"
        }
      ],
      "stateMutability": "view",
      "type": "function"
    },
    {
      "inputs": [
        {
          "internalType": "string",
          "name": "_greeting",
          "type": "string"
        }
      ],
      "name": "setGreeting",
      "outputs": [],
      "stateMutability": "nonpayable",
      "type": "function"
    }
  ],
  "bytecode": "0x60806040523480156200001157600080fd5b5060405162000998380380620009988339810160408190526200003491620001e2565b620000646040518060600160405280602281526020016200097660229139826200008160201b620001fe1760201c565b805162000079906000906020840190620000f3565b505062000337565b620000ce82826040516024016200009a929190620002c8565b60408051601f198184030181529190526020810180516001600160e01b03908116634b5c427760e01b17909152620000d216565b5050565b80516a636f6e736f6c652e6c6f67602083016000808483855afa5050505050565b8280546200010190620002fa565b90600052602060002090601f01602090048101928262000125576000855562000170565b82601f106200014057805160ff191683800117855562000170565b8280016001018555821562000170579182015b828111156200017057825182559160200191906001019062000153565b506200017e92915062000182565b5090565b5b808211156200017e576000815560010162000183565b634e487b7160e01b600052604160045260246000fd5b60005b83811015620001cc578181015183820152602001620001b2565b83811115620001dc576000848401525b50505050565b600060208284031215620001f557600080fd5b81516001600160401b03808211156200020d57600080fd5b818401915084601f8301126200022257600080fd5b81518181111562000237576200023762000199565b604051601f8201601f19908116603f0116810190838211818310171562000262576200026262000199565b816040528281528760208487010111156200027c57600080fd5b6200028f836020830160208801620001af565b979650505050505050565b60008151808452620002b4816020860160208601620001af565b601f01601f19169290920160200192915050565b604081526000620002dd60408301856200029a565b8281036020840152620002f181856200029a565b95945050505050565b600181811c908216806200030f57607f821691505b602082108114156200033157634e487b7160e01b600052602260045260246000fd5b50919050565b61062f80620003476000396000f3fe608060405234801561001057600080fd5b50600436106100365760003560e01c8063a41368621461003b578063cfae321714610050575b600080fd5b61004e61004936600461035f565b61006e565b005b61005861016c565b604051610065919061045d565b60405180910390f35b61011b6040518060600160405280602381526020016105d7602391396000805461009790610477565b80601f01602080910402602001604051908101604052809291908181526020018280546100c390610477565b80156101105780601f106100e557610100808354040283529160200191610110565b820191906000526020600020905b8154815290600101906020018083116100f357829003601f168201915b505050505083610243565b7f372a0521710bf0c4c60e905edb769abc102778a689eba8f30c0526f23a2f0cb760008260405161014d9291906104b2565b60405180910390a180516101689060009060208401906102b0565b5050565b60606000805461017b90610477565b80601f01602080910402602001604051908101604052809291908181526020018280546101a790610477565b80156101f45780601f106101c9576101008083540402835291602001916101f4565b820191906000526020600020905b8154815290600101906020018083116101d757829003601f168201915b5050505050905090565b610168828260405160240161021492919061056e565b60408051601f198184030181529190526020810180516001600160e01b0316634b5c427760e01b17905261028f565b61028a83838360405160240161025b93929190610593565b60408051601f198184030181529190526020810180516001600160e01b0316632ced7cef60e01b17905261028f565b505050565b80516a636f6e736f6c652e6c6f67602083016000808483855afa5050505050565b8280546102bc90610477565b90600052602060002090601f0160209004810192826102de5760008555610324565b82601f106102f757805160ff1916838001178555610324565b82800160010185558215610324579182015b82811115610324578251825591602001919060010190610309565b50610330929150610334565b5090565b5b808211156103305760008155600101610335565b634e487b7160e01b600052604160045260246000fd5b60006020828403121561037157600080fd5b813567ffffffffffffffff8082111561038957600080fd5b818401915084601f83011261039d57600080fd5b8135818111156103af576103af610349565b604051601f8201601f19908116603f011681019083821181831017156103d7576103d7610349565b816040528281528760208487010111156103f057600080fd5b826020860160208301376000928101602001929092525095945050505050565b6000815180845260005b818110156104365760208185018101518683018201520161041a565b81811115610448576000602083870101525b50601f01601f19169290920160200192915050565b6020815260006104706020830184610410565b9392505050565b600181811c9082168061048b57607f821691505b602082108114156104ac57634e487b7160e01b600052602260045260246000fd5b50919050565b60408152600080845481600182811c9150808316806104d257607f831692505b60208084108214156104f257634e487b7160e01b86526022600452602486fd5b604088018490526060880182801561051157600181146105225761054d565b60ff1987168252828201975061054d565b60008c81526020902060005b878110156105475781548482015290860190840161052e565b83019850505b50508786038189015250505050506105658185610410565b95945050505050565b6040815260006105816040830185610410565b82810360208401526105658185610410565b6060815260006105a66060830186610410565b82810360208401526105b88186610410565b905082810360408401526105cc8185610410565b969550505050505056fe4368616e67696e67206772656574696e672066726f6d202725732720746f2027257327a2646970667358221220adcb171b24e5da820a22638b86945496208ab2263e798917dcb7c7904a1fd66364736f6c634300080c00334465706c6f79696e67206120477265657465722077697468206772656574696e673a",
  "linkReferences": {},
  "deployedLinkReferences": {}
}