{
  "_format": "hh-sol-artifact-1",
  "contractName": "Oracle",
  "sourceName": "contracts/Oracle.sol",
  "abi": [
    {
      "anonymous": false,
      "inputs": [
        {
          "indexed": false,
          "internalType": "uint8",
          "name": "version",
          "type": "uint8"
        }
      ],
      "name": "Initialized",
      "type": "event"
    },
    {
      "anonymous": false,
      "inputs": [
        {
          "indexed": true,
          "internalType": "address",
          "name": "oracle",
          "type": "address"
        },
        {
          "indexed": true,
          "internalType": "uint8",
          "name": "priceIndex",
          "type": "uint8"
        }
      ],
      "name": "PriceRequested",
      "type": "event"
    },
    {
      "anonymous": false,
      "inputs": [
        {
          "indexed": true,
          "internalType": "uint8",
          "name": "priceIndex",
          "type": "uint8"
        },
        {
          "indexed": false,
          "internalType": "uint256",
          "name": "price",
          "type": "uint256"
        }
      ],
      "name": "PriceUpdated",
      "type": "event"
    },
    {
      "inputs": [
        {
          "internalType": "uint256[]",
          "name": "_prices",
          "type": "uint256[]"
        }
      ],
      "name": "initialize",
      "outputs": [],
      "stateMutability": "nonpayable",
      "type": "function"
    },
    {
      "inputs": [],
      "name": "priceIndex",
      "outputs": [
        {
          "internalType": "uint8",
          "name": "",
          "type": "uint8"
        }
      ],
      "stateMutability": "view",
      "type": "function"
    },
    {
      "inputs": [
        {
          "internalType": "uint8",
          "name": "_priceIndex",
          "type": "uint8"
        },
        {
          "internalType": "uint256",
          "name": "_price",
          "type": "uint256"
        }
      ],
      "name": "priceUpdate",
      "outputs": [],
      "stateMutability": "nonpayable",
      "type": "function"
    },
    {
      "inputs": [
        {
          "internalType": "uint8",
          "name": "",
          "type": "uint8"
        }
      ],
      "name": "prices",
      "outputs": [
        {
          "internalType": "uint256",
          "name": "",
          "type": "uint256"
        }
      ],
      "stateMutability": "view",
      "type": "function"
    },
    {
      "inputs": [
        {
          "internalType": "uint8",
          "name": "_priceIndex",
          "type": "uint8"
        }
      ],
      "name": "requestPriceUpdate",
      "outputs": [],
      "stateMutability": "nonpayable",
      "type": "function"
    }
  ],
  "bytecode": "0x608060405234801561001057600080fd5b506104fc806100206000396000f3fe608060405234801561001057600080fd5b50600436106100575760003560e01c8063422dfd021461005c5780636fe0e559146100715780638460c688146100845780638a3177a3146100af578063ca4b73fa146100dd575b600080fd5b61006f61006a366004610373565b6100f0565b005b61006f61007f36600461039d565b6101a1565b60005461009890600160b01b900460ff1681565b60405160ff90911681526020015b60405180910390f35b6100cf6100bd366004610412565b60016020526000908152604090205481565b6040519081526020016100a6565b61006f6100eb366004610412565b6102a2565b6000546201000090046001600160a01b0316331461014e5760405162461bcd60e51b815260206004820152601660248201527527b930b1b6329d1024b73b30b634b21031b0b63632b960511b60448201526064015b60405180910390fd5b8160ff167ff798c75b2db09ea1034d9be253e9974b17bbe4a06f2b0ff6695054fa5b7471918260405161018391815260200190565b60405180910390a260ff909116600090815260016020526040902055565b60006101ad60016102d5565b905080156101c5576000805461ff0019166101001790555b60008054600160b01b900460ff169083905b818160ff1610156102375785858260ff168181106101f7576101f7610434565b60ff861660009081526001602090815260409091209102929092013590915550826102218161044a565b935050808061022f9061044a565b9150506101d7565b50506000805460ff909216600160b01b0260ff60b01b19909216919091179055801561029d576000805461ff0019169055604051600181527f7f26b83ff96e1f2b6a682f133852f6798a09c465da95921460cefb38474024989060200160405180910390a15b505050565b60405160ff82169030907f9dc016492bba583cfdb674a0fe2c9d99888f482d36c9c09912620b81e6fe318790600090a350565b60008054610100900460ff161561031c578160ff1660011480156102f85750303b155b6103145760405162461bcd60e51b815260040161014590610478565b506000919050565b60005460ff8084169116106103435760405162461bcd60e51b815260040161014590610478565b506000805460ff191660ff92909216919091179055600190565b919050565b803560ff8116811461035d57600080fd5b6000806040838503121561038657600080fd5b61038f83610362565b946020939093013593505050565b600080602083850312156103b057600080fd5b823567ffffffffffffffff808211156103c857600080fd5b818501915085601f8301126103dc57600080fd5b8135818111156103eb57600080fd5b8660208260051b850101111561040057600080fd5b60209290920196919550909350505050565b60006020828403121561042457600080fd5b61042d82610362565b9392505050565b634e487b7160e01b600052603260045260246000fd5b600060ff821660ff81141561046f57634e487b7160e01b600052601160045260246000fd5b60010192915050565b6020808252602e908201527f496e697469616c697a61626c653a20636f6e747261637420697320616c72656160408201526d191e481a5b9a5d1a585b1a5e995960921b60608201526080019056fea26469706673582212202535cd4f3c4e1121f0e72c0c3b01a913411f9f0d95377c6dabad02c3c164de4e64736f6c634300080c0033",
  "linkReferences": {},
  "deployedLinkReferences": {}
}